:020000040800F2
:1000000000100020950600082D04000837040008A1
:1000100000000000000000000000000000000000E0
:100020000000000000000000000000003D04000887
:100030000000000000000000470400085104000810
:10004000E1060008E1060008E1060008E1060008F4
:10005000E1060008E1060008E1060008E1060008E4
:10006000E1060008E1060008E1060008E1060008D4
:10007000E1060008E1060008E1060008E1060008C4
:10008000E1060008E106000800000000E1060008A3
:10009000E1060008E1060008E1060008E1060008A4
:1000A000E1060008E1060008E1060008E106000894
:1000B000E106000800000000E10600080000000062
:0400C0005FF808F1EC
:1000C400002243088B4274D303098B425FD3030A93
:1000D4008B4244D3030B8B4228D3030C8B420DD3A6
:1000E400FF22090212BA030C8B4202D31212090234
:1000F40065D0030B8B4219D300E0090AC30B8B4272
:1001040001D3CB03C01A5241830B8B4201D38B031F
:10011400C01A5241430B8B4201D34B03C01A5241C4
:10012400030B8B4201D30B03C01A5241C30A8B4207
:1001340001D3CB02C01A5241830A8B4201D38B02F2
:10014400C01A5241430A8B4201D34B02C01A524196
:10015400030A8B4201D30B02C01A5241CDD2C30908
:100164008B4201D3CB01C01A524183098B4201D384
:100174008B01C01A524143098B4201D34B01C01A6F
:10018400524103098B4201D30B01C01A5241C308E7
:100194008B4201D3CB00C01A524183088B4201D356
:1001A4008B00C01A524143088B4201D34B00C01A42
:1001B4005241411A00D20146524110467047FFE7AE
:1001C40001B5002000F006F802BDC0460029F7D0B2
:1001D40076E770477047C04680B500AF1B4B1A687E
:1001E4001A4B01210A431A60184B5A68174B1849D5
:1001F4000A405A60154B1A68144B16490A401A6093
:10020400124B1A68114B14490A401A600F4B5A6872
:100214000E4B12490A405A600C4BDA6A0B4B0F2101
:100224008A43DA62094B1A6B084B0D490A401A6378
:10023400064B5A6B054B01218A435A63034B002238
:100244009A6000F081F8C046BD4680BD00100240AF
:100254000CB8FFF8FFFFF6FEFFFFFBFFFFFFC0FF38
:10026400ACFEFFFF80B584B000AF0023FB60002329
:10027400BB6000237B6000233B602F4B5B680C2238
:100284001340FB60FB68042B09D0FB68082B0AD0E1
:10029400FB68002B38D1294B294A1A6038E0274BD8
:1002A400274A1A6034E0244B5A68F0239B03134016
:1002B400BB60214B5A6880235B0213407B60BB68A0
:1002C4009B0C0233BB607B68002B0CD1B9680A001D
:1002D4005201521A93019B1ADB005B181B021A008D
:1002E400164B1A6014E0144BDB6A0F2213400133DF
:1002F4003B6039681248FFF7E3FE03001A00BB684D
:100304005A430E4B1A6003E00C4B0D4A1A60C04668
:10031400094B5B681B090F2213400A4AD35CDBB20A
:10032400FB60064B1A68FB68DA40044B1A60C0464F
:10033400BD4604B080BDC04600100240000000204D
:1003440000127A000400002080B582B000AF0023C0
:100354007B6000233B60314B1A68304B802149029B
:100364000A431A602D4B1A6880239B0213403B609A
:100374007B6801337B603B68002B04D17A68A0233F
:10038400DB019A42EED1254B1A6880239B0213406D
:1003940002D001233B6001E000233B603B68012B5A
:1003A40038D11F4B11221A601C4A1C4B52685A60E8
:1003B4001A4A1A4B52685A60184B5A68174B194913
:1003C4000A405A60154B5A68144B882149030A4362
:1003D4005A60124B1A68114B802149040A431A606F
:1003E400C0460E4B1A6880239B041340F9D00B4B74
:1003F4005A680A4B03218A435A60084B5A68074BD0
:1004040002210A435A60C046044B5B680C22134025
:10041400082BF9D1C046BD4602B080BD0010024091
:1004240000200240FFFFC0FF80B500AFC046BD46BC
:1004340080BD80B500AFFEE780B500AFC046BD46C5
:1004440080BD80B500AFC046BD4680BD80B500AF5D
:10045400C046BD4680BD000090B583B000AF020029
:100464003960FB1D1A70FB1D1B787F2B32D92F4A74
:10047400FB1D1B7819000F230B40083B9B08063318
:100484009B00D31804331B68FA1D12781100032251
:100494000A40D200FF2191400A00D2431A401100C1
:1004A4003B689B01FF221A40FB1D1B7818000323A5
:1004B4000340DB009A401D48FB1D1B781C000F23E2
:1004C4002340083B9B080A4306339B00C3180433AC
:1004D4001A6027E0164AFB1D1B785BB29B08C033E9
:1004E4009B009B58FA1D1278110003220A40D20087
:1004F400FF2191400A00D2431A4011003B689B013E
:10050400FF221A40FB1D1B78180003230340DB0065
:100514009A400748FB1D1B785BB29B080A43C03313
:100524009B001A50C046BD4603B090BD00ED00E0EC
:1005340000E100E080B582B000AF78607B680E4ACD
:10054400934201D9012312E07B681B021A0A0B4B68
:10055400013A5A6001235B4203211800FFF77CFF34
:10056400064B00229A60054B07221A6000231800EC
:10057400BD4602B080BDC046FFFFFF0010E000E0B2
:1005840080B586B000AF96235B011800FFF7D2FF59
:10059400FFF768FE80239B020121180000F0FCF89D
:1005A4008023DB020121180000F0F6F880231B03EE
:1005B4000121180000F0F0F83B1D20221A603B1DB9
:1005C40000221A713B1D00229A713B1D03225A71AD
:1005D4003B1D0022DA713B1D2B4A1900100000F06C
:1005E4007FF83B1D14221A603B1D01221A713B1D2A
:1005F40000229A713B1D03225A713B1D0022DA71BD
:100604003A1D9023DB051100180000F069F89023CF
:10061400DB051021180000F0BBF89023DB05102146
:10062400180000F0B7F89023DB0504229A619023A8
:10063400DB0504221A8500237B619023DB0510214E
:10064400180000F0A5F800233B6102E03B69013388
:100654003B613B690D4A9342F8DD412000F0A8F864
:100664007B6901337B619023DB051021180000F0C6
:1006740091F80023FB6002E0FB680133FB60FB6838
:10068400024A9342F8DDD8E7000800481FA107009A
:100694000C488546002103E00B4B5B584350043162
:1006A4000A480B4B42189A42F6D30A4A02E0002346
:1006B40013600432084B9A42F9D3FFF78DFDFFF71C
:1006C4005FFFFEE700100020F01700080000002084
:1006D400780000207800002094000020FEE700004D
:1006E400F0B5DE4657464E4645460122E0B59346F0
:1006F400023283B00F680023944602E00133102BCA
:100704003ED05A469A4014003C40A242F6D15D00C5
:10071400A84665464646B540ED430C790195661EEC
:10072400012E17D886682E40454686608668B246F4
:100734004E79AE40B14656464D462E438660858876
:100744002E00964386808D7982882E009E40324307
:1007540092B282800268019D0133154005604546CE
:10076400AC400268144304606446AC40C268A243CF
:10077400C260CA79C468AA402243C260102BC0D1A7
:1007840003B03CBC90469946A246AB46F0BDC04679
:100794008161704701857047044A5369002902D07A
:1007A40018435061704783435361FBE700100240D4
:1007B4000FB40B4B13B51C68002C05D0A369002B98
:1007C40002D1200000F070F805AB049AA168200063
:1007D400019300F09BF916BC08BC04B01847C0464E
:1007E40014000020002310B50400036043608360FC
:1007F40081814366C28103614361836119000822D8
:100804005C3000F0F5F8054B24626362044BA3628C
:10081400044BE362044B236310BDC04691100008EF
:10082400B9100008F11000081D11000810B50249A4
:1008340000F0BAF810BDC0462114000870B5682550
:100844004A1E55430E002900743100F0D9F8041EE5
:1008540008D000212A00016046600C30A060683294
:1008640000F0C6F8200070BD10B5024800F0BEF8D4
:1008740010BDC0468C00002010B5024800F0B7F847
:1008840010BDC0468C00002010B5024800F0AEF840
:1008940010BDC0468700002010B5024800F0A7F83C
:1008A40010BDC0468700002013B50400FFF7ECFF1D
:1008B400A369002B02D0FFF7EFFF13BDA364E36429
:1008C4002365134B134A1B68A2620193A34201D10F
:1008D4000123A361200000F01FF86060200000F0F5
:1008E4001BF8A060200000F017F80022E06004214B
:1008F4006068FFF777FF01220921A068FFF772FF04
:1009040002221221E068FFF76DFF0123A361D2E701
:10091400B817000831080008F8B50600FFF7A4FF6F
:100924001F4B1D68AB69002B02D12800FFF7BCFFE9
:100934004835AC686B68013B04D52B68002B22D08A
:100944002D68F6E70C22A75E002F1AD12000154B64
:100954005830E360676600F048F8FFF78DFF200029
:100964002760A760676027616761A7610822390073
:100974005C3000F03DF86763A763A764E764200078
:10098400F8BD6834D7E704213000FFF757FF041E91
:100994002860D5D1FFF770FF0C233360EFE7C04622
:1009A400B81700080100FFFFF7B504000700002690
:1009B40001914834002C01D13000FEBD6368A56864
:1009C4000093009B013B009301D52468F2E7AB89B7
:1009D400012B08D90E22AB5E013304D02900380064
:1009E400019B984706436835EBE7704770477047AB
:1009F40003001218934200D1704719700133F9E7CC
:100A0400F8B50323CD1C9D43083506000C2D1FD2D9
:100A14000C25A9421ED8300000F0CCFD25490A68F7
:100A24001400002C1AD1244F3B68002B04D1210060
:100A3400300000F019FB38602900300000F014FB8E
:100A4400431C2AD10C233000336000F0BBFD03E0CB
:100A5400002DDEDA0C2333600020F8BD23685B1B15
:100A640018D40B2B03D92360E418256003E06368D2
:100A7400A2420DD10B60300000F0A4FD200007223B
:100A84000B30231D9043C21AE7D01B1AA350E4E78E
:100A94005360F0E722006468C3E70323C41C9C434B
:100AA400A042E2D0211A300000F0DEFA431CDCD16F
:100AB400C8E7C046780000207C000020936810B589
:100AC400013B9360002B04DA9469A34207DB0A29F3
:100AD40005D01368581C10601970080010BD00F090
:100AE40021FB0100F9E7F8B506000F001400D51842
:100AF400AC4201D1002007E021783A003000FFF732
:100B0400DDFF0134431CF3D1F8BD0000F0B5A1B002
:100B140007000D0003921E00002804D08369002BF7
:100B240001D1FFF7C1FE8C4B9D421CD17D686B6ED9
:100B3400DB0705D4AB899B0502D4A86DFFF756FFEC
:100B4400AB891B0702D52B69002B1DD12900380066
:100B540000F052FB002817D06B6EDB070DD5012087
:100B6400404221B0F0BD7D4B9D4201D1BD68DEE71E
:100B74007B4B9D42DBD1FD68D9E7AB899B05EED465
:100B8400A86DFFF734FFEAE7002308AC6361203364
:100B940063761033A3760796039E3378002B01D037
:100BA400252B4BD1039BF31A05930CD0039A2900F0
:100BB4003800FFF798FF431C00D1B5E06269059B3C
:100BC4009446634463613378002B00D1ACE0012286
:100BD400731C039300235242626004A954325218D6
:100BE4002360E360A3601370A365039B0522197857
:100BF4005C4800F0D3FC039B5E1C002820D12268D3
:100C0400D30604D5532304A95B18202119701307B4
:100C140004D5532304A95B182B211970039B1B785B
:100C24002A2B16D00021E368039E3278701C303AD8
:100C34008446092A4FD9002911D117E00136ACE7BF
:100C4400484B2268C01A0123834013432360039650
:100C5400CBE7079B191D1B680791002B01DB0B9346
:100C640004E05B42E36002231343236033782E2BBA
:100C74000AD173782A2B37D1079B02361A1D1B68B9
:100C84000792002B2DDB099331780322364800F0BC
:100C940085FC002807D0344B2268C01A40238340C7
:100CA4001343013623603178731C06222F480393C3
:100CB400217600F073FC002845D02D4B002B27D162
:100CC4000722079B07339343083307936369049A06
:100CD4009B18636160E70A214B4366469B180939F8
:100CE400A3E701235B42CEE700231A0001366360C9
:100CF4003178701C30398446092903D9002BC3D0BC
:100D04000992C1E70A235A4366465218093BEFE7A2
:100D140007AB00932A00174B2100380000E000BF06
:100D24000490049B0133D1D16B6EDB0705D4AB89EE
:100D34009B0502D4A86DFFF75AFEAB895B0600D56C
:100D44000DE70D980DE707AB00932A00094B21002E
:100D5400380000F07FF8E3E77817000898170008D8
:100D640058170008BC170008C2170008C617000867
:100D740000000000EB0A0008F7B5150001938A682B
:100D84000B6900900C00934200DA130022002B60E0
:100D940043321278002A01D001332B6023689B066A
:100DA40002D52B6802332B60062723681F4027D007
:100DB400230043331B785A1E93412268920630D491
:100DC4002200019943320098089EB047431C25D065
:100DD400062320682A68E16803400025042B03D118
:100DE4008D1AEB43DB171D40A3682269934201DD92
:100DF4009B1AED180027BD4220D1002010E00137D6
:100E0400E3682A689B1ABB42D2DD2200012319320F
:100E140001990098089EB047431CF0D1012040423C
:100E2400FEBD3020E1184331087021005A1C4531C1
:100E34000978A218433202331170C1E7220001235A
:100E44001A3201990098089EB047431CE6D0013736
:100E5400D1E70000F0B58BB006920A004332079345
:100E6400059004920A7E0C00109B6E2A00D1AFE01C
:100E740020D8632A35D008D8002A00D1B5E0582AF2
:100E840051D026004236327032E0642A01D0692AF9
:100E9400F7D1196820680A1D05062BD50D681A605C
:100EA400002D03DA2D23049A6D4213706C4B0A272C
:100EB400039352E0732A00D19BE008D86F2A1FD015
:100EC400702ADED1202209680A43226003E0752AD1
:100ED40016D0782AD5D12200782145321170614A82
:100EE40024E026001A684236111D19601368337015
:100EF40001238CE00D681A604106D1D52DB2CFE7ED
:100F040019682568081D18602E0601D50D6803E0D0
:100F14006D06FBD50D68ADB2514B0A2703936F2ABA
:100F240017D1082715E045310A704D4A03921A6813
:100F3400216820CA1A60080644D5CB0702D52023AD
:100F4400194321601027002D03D1202322689A43DE
:100F540022602300002243331A706368A360002BCD
:100F640003DB0422216891432160002D02D1049EF9
:100F7400002B0AD0049E39002800FFF727F9039BB1
:100F8400013E5B5C3370AF4220D9082F09D123683E
:100F9400DB0706D563682269934202DC3023013EF5
:100FA4003370049B9B1B2361079B09AA00932100B8
:100FB400069B0598FFF7E0FE431C2DD1012040421B
:100FC4000BB0F0BD4806B8D5ADB2B6E70500D2E720
:100FD4001A680D68101D4969186013682E0601D53A
:100FE400196002E06D06FBD519800023049E23617D
:100FF400DAE71A68111D196016680021626830006A
:1010040000F0CCFA002801D0801B60606368236183
:101014000023049A1370C7E72369320006990598E0
:10102400079DA847431CC9D023689B0715D4099B77
:10103400E0689842C4DA1800C2E72200012319329A
:1010440006990598079EB047431CB7D00135E3685D
:10105400099A9B1AAB42F0DCE9E70025F7E7C046A2
:10106400CD170008DE170008002370B5064C0500F4
:101074000800236000F058FB431C03D12368002BB5
:1010840000D02B6070BDC0469000002070B50C00ED
:101094000E25495F00F0E8FA002803DB636D1B1896
:1010A400636570BDA389024A1340A381F9E7C04672
:1010B400FFEFFFFFF8B51F008B8905000C00160039
:1010C400DB0505D50E23C95E0022022300F0E6F9F4
:1010D400A389054A28001340A38132000E23E15E50
:1010E4003B0000F075F8F8BDFFEFFFFF70B50C0092
:1010F4000E25495F00F0D2F9A389421C03D1054AA9
:101104001340A38170BD802252011343A381606503
:10111400F8E7C046FFEFFFFF10B50E23C95E00F0ED
:10112400E1F810BDF8B505000E001400002804D045
:101134008369002B01D1FFF7B7FB224B9C422ED1D0
:101144006C68A369A360A3891B0732D52369002BAC
:101154002FD023682269F7B2981A6369F6B28342E2
:1011640005DC2100280000F059F9002827D1A368E4
:101174000130013BA36023685A1C22601F7063691D
:10118400834204D0A389DB0707D50A2E05D12100A9
:10119400280000F043F9002811D13000F8BD0A4BB3
:1011A4009C4201D1AC68CCE7084B9C42C9D1EC68A5
:1011B400C7E72100280000F01FF80028C9D0012645
:1011C4007642EAE7781700089817000858170008CD
:1011D40070B50500080011000022064C22601A00B8
:1011E40000F0B0FA431C03D12368002B00D02B601D
:1011F40070BDC04690000020364B70B51D680600D7
:101204000C00002D05D0AB69002B02D12800FFF79C
:101214004BFB314B9C420FD16C680C23E25E93B2C2
:1012240019072DD4D90611D409230120336037338B
:101234001343A381404270BD284B9C4201D1AC684A
:10124400EBE7274B9C42E8D1EC68E6E75B0713D554
:10125400616B002908D023004433994202D0300046
:1012640000F0B8F9002363632422A3899343A38184
:1012740000236360236923600823A2891343A381A5
:101284002369002B0BD1A0218022A389890092001D
:101294000B40934203D02100300000F03BF90123BE
:1012A400A289134011D00023A36063695B42A36148
:1012B400002023698342BED10C23E25E1306BAD513
:1012C40040231343A3810138B5E7920700D463692F
:1012D400A360EDE7140000207817000898170008B1
:1012E40058170008002370B5064C05000800236059
:1012F40000F0F2F9431C03D12368002B00D02B60CB
:1013040070BDC04690000020F7B58A8905000C0026
:10131400130760D44B68002B04DC0B6C002B01DC3E
:101324000020FEBDE76A002FFAD000232E682B6050
:1013340080235B011A4034D0606DA3895B0706D516
:101344006368C01A636B002B01D0236CC01A0200BF
:10135400216A00232800E76AB847A189431C06D103
:101364002B681D2B31D82C4ADA40D3072DD5002306
:10137400636023692360CB0405D5431C02D12B6829
:10138400002B00D16065616B2E600029C8D023005A
:101394004433994202D0280000F01CF90020606315
:1013A400BFE70123216A2800B847431CC5D12B6835
:1013B400002BC2D01D2B01D0162B01D12E60AFE71C
:1013C4004023A2891343A381ABE740230B430120AD
:1013D400A3814042A5E70F69002FA1D00B680F60DD
:1013E400DB1B01930023920700D14B69A360019B8F
:1013F400002B00DC94E7019B3A00216A2800A66ACE
:10140400B047002803DC4023A2891343DFE7019B94
:101414003F181B1A0193EAE7010040200B6970B5DD
:1014240005000C00002B02D10025280070BD002807
:1014340004D08369002B01D1FFF736FA144B9C4288
:101444001BD16C680C22A35E002BEDD0626ED20718
:1014540004D49B0502D4A06DFFF7C8FA280021002C
:10146400FFF752FF636E0500DB07DED4A3899B05FB
:10147400DBD4A06DFFF7BBFAD7E7064B9C4201D142
:10148400AC68DFE7044B9C42DCD1EC68DAE7C04689
:1014940078170008981700085817000870B5050059
:1014A400080011000022064C22601A0000F02CF9FA
:1014B400431C03D12368002B00D02B6070BDC046B1
:1014C4009000002070B50E001D000E23C95E96B07A
:1014D4001400002907DA00232B60B3891B0611D4FA
:1014E4008023DB000FE06A4600F0D2F80028F2DB2C
:1014F400F022019B12021340054A9B185A425341A1
:101504002B60EDE740230020236016B070BDC04679
:1015140000E0FFFFF7B502268B8905000C0033427B
:1015240006D0230047332360236101236361F7BDA1
:1015340001AB6A46FFF7C6FF009907002800FFF7D2
:101544005FFA002808D10C22A35E9A05EFD4032287
:1015540093431E43A681E4E70F4BAB628023A28929
:1015640020601343A381009B20616361019B002BD6
:101574000DD00E23E15E280000F09CF8002806D070
:101584000322A38993431A0001231343A381A0894F
:101594003843A081CBE7C04631080008C9B282189D
:1015A400904201D10020704703788B42FBD0013078
:1015B400F6E7000010B50248FFF718FA10BDC04660
:1015C4008800002010B50248FFF711FA10BDC0468C
:1015D4008800002070B50500002910D00C1F236876
:1015E400002B00DAE4182800FFF7E4FF1D4A136813
:1015F400002B05D1636014602800FFF7E3FF70BD82
:10160400A34209D9216860188342F3D118685B6842
:1016140041182160EEE713005A68002A01D0A24263
:10162400F9D919685818A0420BD12068091858181C
:1016340019608242E0D110685268411819605A60FA
:10164400DAE7A04202D90C232B60D5E721686018A1
:10165400824203D1106852684118216062605C6064
:10166400CAE7C0467800002070B5050008001100E4
:101674000022064C22601A0000F04EF8431C03D1ED
:101684002368002B00D02B6070BDC0469000002062
:10169400002370B5064C050008001100236000F01B
:1016A40023F8431C03D12368002B00D02B6070BDAA
:1016B40090000020002370B5064C0500080023604C
:1016C40000F01AF8431C03D12368002B00D02B60D0
:1016D40070BDC0469000002058220120014B4042BA
:1016E4001A6070479000002058220120014B4042AC
:1016F4001A607047900000205822024B00201A60A4
:101704007047C0469000002058220120014B4042FF
:101714001A6070479000002058220120014B40427B
:101724001A60704790000020044A1368002B03D00D
:101734001818106018007047014BF9E7800000206A
:101744009800002058220120014B40421A60704743
:0417540090000020E1
:101758000000000000000000000000000000000081
:101768000000000000000000000000000000000071
:101778000000000000000000000000000000000061
:101788000000000000000000000000000000000051
:101798000000000000000000000000000000000041
:1017A8000000000000000000000000000000000031
:1017B80018000020232D302B2000686C4C00656633
:1017C800674546470030313233343536373839418A
:1017D80042434445460030313233343536373839A0
:0817E8006162636465660000A4
:1017F000006CDC0200000000000000000102030495
:1018000006070809180000200000000078170008EB
:10181000981700085817000800000000000000009A
:1018200000000000000000000000000000000000B8
:1018300000000000000000000000000000000000A8
:101840000000000000000000000000000000000098
:101850000000000000000000000000000000000088
:08186000000000000000000080
:040000050800069554
:00000001FF
