:020000040800F2
:1000000000100020550500084903000853030008AC
:1000100000000000000000000000000000000000E0
:10002000000000000000000000000000590300086C
:100030000000000000000000630300086D030008DA
:10004000A1050008A1050008A1050008A1050008F8
:10005000A1050008B9040008A1050008A1050008D1
:10006000A1050008A1050008A1050008A1050008D8
:10007000A1050008A1050008A1050008A1050008C8
:10008000A1050008A105000800000000A105000866
:10009000A1050008A1050008A1050008A1050008A8
:1000A000A1050008A1050008A1050008A105000898
:1000B000A105000800000000A105000800000000E4
:0400C0005FF808F1EC
:1000C400002243088B4274D303098B425FD3030A93
:1000D4008B4244D3030B8B4228D3030C8B420DD3A6
:1000E400FF22090212BA030C8B4202D31212090234
:1000F40065D0030B8B4219D300E0090AC30B8B4272
:1001040001D3CB03C01A5241830B8B4201D38B031F
:10011400C01A5241430B8B4201D34B03C01A5241C4
:10012400030B8B4201D30B03C01A5241C30A8B4207
:1001340001D3CB02C01A5241830A8B4201D38B02F2
:10014400C01A5241430A8B4201D34B02C01A524196
:10015400030A8B4201D30B02C01A5241CDD2C30908
:100164008B4201D3CB01C01A524183098B4201D384
:100174008B01C01A524143098B4201D34B01C01A6F
:10018400524103098B4201D30B01C01A5241C308E7
:100194008B4201D3CB00C01A524183088B4201D356
:1001A4008B00C01A524143088B4201D34B00C01A42
:1001B4005241411A00D20146524110467047FFE7AE
:1001C40001B5002000F006F802BDC0460029F7D0B2
:1001D40076E770477047C04680B500AF1B4B1A687E
:1001E4001A4B01210A431A60184B5A68174B1849D5
:1001F4000A405A60154B1A68144B16490A401A6093
:10020400124B1A68114B14490A401A600F4B5A6872
:100214000E4B12490A405A600C4BDA6A0B4B0F2101
:100224008A43DA62094B1A6B084B0D490A401A6378
:10023400064B5A6B054B01218A435A63034B002238
:100244009A6000F00FF8C046BD4680BD0010024021
:100254000CB8FFF8FFFFF6FEFFFFFBFFFFFFC0FF38
:10026400ACFEFFFF80B582B000AF00237B600023AB
:100274003B60314B1A68304B802149020A431A60B3
:100284002D4B1A6880239B0213403B607B6801332B
:100294007B603B68002B04D17A68A023DB019A427F
:1002A400EED1254B1A6880239B02134002D0012310
:1002B4003B6001E000233B603B68012B38D11F4BBE
:1002C40011221A601C4A1C4B52685A601A4A1A4B73
:1002D40052685A60184B5A68174B19490A405A60B9
:1002E400154B5A68144B882149030A435A60124B30
:1002F4001A68114B802149040A431A60C0460E4B08
:100304001A6880239B041340F9D00B4B5A680A4B9C
:1003140003218A435A60084B5A68074B02210A4357
:100324005A60C046044B5B680C221340082BF9D179
:10033400C046BD4602B080BD00100240002002400D
:10034400FFFFC0FF80B500AFC046BD4680BD80B58D
:1003540000AFFEE780B500AFC046BD4680BD80B5A6
:1003640000AFC046BD4680BD80B500AFC046BD46A7
:1003740080BD000080B582B000AF0200FB1D1A7082
:10038400FB1D1B781A001F23134001229A40034BC4
:100394001A60C046BD4602B080BDC04600E100E020
:1003A40090B58BB000AF78600C243B19180000F0B6
:1003B400A3F93B195B6879681800FFF781FE030015
:1003C4001A00034B1A60C046BD460BB090BDC04630
:1003D4001400002080B582B000AF78600A4B1B681F
:1003E4007A685A4313005B019B1A9B009B18DB003D
:1003F4000A3B7B60C0467B685A1E7A60002BFAD1A8
:10040400C046BD4602B080BD1400002090B585B042
:1004140000AF264B1800FFF7C3FF3B00180000F0A5
:10042400F3F880239B020121180000F0E7F93B0058
:10043400082439191A685B680868496800F04CF8A0
:1004440021007B1811221A607B1801221A717B1873
:1004540000229A717B1800225A717B180122DA71EA
:100464007A189023DB051100180000F0E9F89023B6
:10047400DB051021180000F03BF90D4B1B68002B25
:10048400FBD00B4B00221A609023DB0510211800CF
:1004940000F030F9FA239B001800FFF79BFF90232C
:1004A400DB051021180000F023F9E6E700127A00BA
:1004B4001000002080B500AF022000F0B7F8031E42
:1004C40005D0022000F0B6F8024B01221A60C046A3
:1004D400BD4680BD10000020B0B584B000AF082533
:1004E4007C192060616039000A604B6029007B1828
:1004F40002221A607B1800221A717B1800229A715A
:100504007B1800225A717B180222DA717A18902320
:10051400DB051100180000F093F80221002000F020
:1005240079F93B0002221A603B0001229A713B00D8
:1005340000221A713B0010225A713B00180000F08F
:100544002FF80520FFF716FFC046BD4604B0B0BD26
:100554000C488546002103E00B4B5B5843500431A3
:100564000A480B4B42189A42F6D30A4A02E0002387
:1005740013600432084B9A42F9D3FFF72DFEFFF7BC
:1005840045FFFEE70010002044080008000000209A
:1005940010000020100000201C000020FEE70000D6
:1005A400184B30B59C460279046883796244E14370
:1005B400002B1BD063461D680D401D605D682940FB
:1005C400596011680C43146002689C68D5432C4040
:1005D4009C60D9682940D960417910290AD0094B17
:1005E4009C4661440B681A430A6030BD1368194085
:1005F4001160FAE7996811439960D9680A43DA608F
:10060400F3E7C04600040140C02200231201036046
:10061400828083717047C046034B5B691840431E58
:100624009841C0B27047C0460004014010B5FFF7BE
:10063400F3FF10BD014B58617047C04600040140F0
:10064400F0B5DE4657464E4645460122E0B5934690
:10065400023283B00F680023944602E00133102B6A
:100664003ED05A469A4014003C40A242F6D15D0066
:10067400A84665464646B540ED430C790195661E8D
:10068400012E17D886682E40454686608668B24695
:100694004E79AE40B14656464D462E438660858817
:1006A4002E00964386808D7982882E009E403243A8
:1006B40092B282800268019D01331540056045466F
:1006C400AC400268144304606446AC40C268A24370
:1006D400C260CA79C468AA402243C260102BC0D148
:1006E40003B03CBC90469946A246AB46F0BDC0461A
:1006F40081617047018570470C233C4A70B551688D
:1007040004000B40042B01D0082B4BD03848206048
:1007140002003649374D4B681B061B0FEB5CDA4071
:1007240062604B685B055B0FEB5CDA40A2600B6BAD
:10073400DB0531D4304BE36040232C4D296B0B4057
:1007440059424B4112215B420B40802109028C46E5
:10075400634423612B6BDB0608D503006361032329
:1007640022490D6B2B4208D1A26170BD204B1F4959
:10077400636103230D6B2B42F6D00A6B1A40012AE6
:100784002DD00A6B1A40022A2BD00A6B1340032B7C
:10079400EBD1174BA361E8E74B685B0413D4530810
:1007A400E360C9E70F2150685368800C0840851C3A
:1007B400DB030BD46B015B1B9801C01AC00040190A
:1007C40000022060A4E79308E360B5E7D36A084811
:1007D40019400131FFF774FC6843206098E7A06179
:1007E400C3E780231B02A361BFE7C0460010024099
:1007F40000127A0000000020809FD500044A53694B
:10080400002902D018435061704783435361FBE7CA
:1008140000100240032310B50F24084A0B409446ED
:100824009B009C4098408908890061448A68A243DF
:100834008A608A681043886010BDC0460000014089
:100844000000000001020304010203040607080972
:040000050800055595
:00000001FF
