:020000040800F2
:10000000001000209D0600082D0400083704000899
:1000100000000000000000000000000000000000E0
:100020000000000000000000000000003D04000887
:100030000000000000000000470400085104000810
:10004000E9060008E9060008E9060008E9060008D4
:10005000E9060008E9060008E9060008E9060008C4
:10006000E9060008E9060008E9060008E9060008B4
:10007000E9060008E9060008E9060008E9060008A4
:10008000E9060008E906000800000000E90600088B
:10009000E9060008E9060008E9060008E906000884
:1000A000E9060008E9060008E9060008E906000874
:1000B000E906000800000000E90600080000000052
:0400C0005FF808F1EC
:1000C400002243088B4274D303098B425FD3030A93
:1000D4008B4244D3030B8B4228D3030C8B420DD3A6
:1000E400FF22090212BA030C8B4202D31212090234
:1000F40065D0030B8B4219D300E0090AC30B8B4272
:1001040001D3CB03C01A5241830B8B4201D38B031F
:10011400C01A5241430B8B4201D34B03C01A5241C4
:10012400030B8B4201D30B03C01A5241C30A8B4207
:1001340001D3CB02C01A5241830A8B4201D38B02F2
:10014400C01A5241430A8B4201D34B02C01A524196
:10015400030A8B4201D30B02C01A5241CDD2C30908
:100164008B4201D3CB01C01A524183098B4201D384
:100174008B01C01A524143098B4201D34B01C01A6F
:10018400524103098B4201D30B01C01A5241C308E7
:100194008B4201D3CB00C01A524183088B4201D356
:1001A4008B00C01A524143088B4201D34B00C01A42
:1001B4005241411A00D20146524110467047FFE7AE
:1001C40001B5002000F006F802BDC0460029F7D0B2
:1001D40076E770477047C04680B500AF1B4B1A687E
:1001E4001A4B01210A431A60184B5A68174B1849D5
:1001F4000A405A60154B1A68144B16490A401A6093
:10020400124B1A68114B14490A401A600F4B5A6872
:100214000E4B12490A405A600C4BDA6A0B4B0F2101
:100224008A43DA62094B1A6B084B0D490A401A6378
:10023400064B5A6B054B01218A435A63034B002238
:100244009A6000F081F8C046BD4680BD00100240AF
:100254000CB8FFF8FFFFF6FEFFFFFBFFFFFFC0FF38
:10026400ACFEFFFF80B584B000AF0023FB60002329
:10027400BB6000237B6000233B602F4B5B680C2238
:100284001340FB60FB68042B09D0FB68082B0AD0E1
:10029400FB68002B38D1294B294A1A6038E0274BD8
:1002A400274A1A6034E0244B5A68F0239B03134016
:1002B400BB60214B5A6880235B0213407B60BB68A0
:1002C4009B0C0233BB607B68002B0CD1B9680A001D
:1002D4005201521A93019B1ADB005B181B021A008D
:1002E400164B1A6014E0144BDB6A0F2213400133DF
:1002F4003B6039681248FFF7E3FE03001A00BB684D
:100304005A430E4B1A6003E00C4B0D4A1A60C04668
:10031400094B5B681B090F2213400A4AD35CDBB20A
:10032400FB60064B1A68FB68DA40044B1A60C0464F
:10033400BD4604B080BDC04600100240000000204D
:1003440000127A000400002080B582B000AF0023C0
:100354007B6000233B60314B1A68304B802149029B
:100364000A431A602D4B1A6880239B0213403B609A
:100374007B6801337B603B68002B04D17A68A0233F
:10038400DB019A42EED1254B1A6880239B0213406D
:1003940002D001233B6001E000233B603B68012B5A
:1003A40038D11F4B11221A601C4A1C4B52685A60E8
:1003B4001A4A1A4B52685A60184B5A68174B194913
:1003C4000A405A60154B5A68144B882149030A4362
:1003D4005A60124B1A68114B802149040A431A606F
:1003E400C0460E4B1A6880239B041340F9D00B4B74
:1003F4005A680A4B03218A435A60084B5A68074BD0
:1004040002210A435A60C046044B5B680C22134025
:10041400082BF9D1C046BD4602B080BD0010024091
:1004240000200240FFFFC0FF80B500AFC046BD46BC
:1004340080BD80B500AFFEE780B500AFC046BD46C5
:1004440080BD80B500AFC046BD4680BD80B500AF5D
:10045400C046BD4680BD000090B583B000AF020029
:100464003960FB1D1A70FB1D1B787F2B32D92F4A74
:10047400FB1D1B7819000F230B40083B9B08063318
:100484009B00D31804331B68FA1D12781100032251
:100494000A40D200FF2191400A00D2431A401100C1
:1004A4003B689B01FF221A40FB1D1B7818000323A5
:1004B4000340DB009A401D48FB1D1B781C000F23E2
:1004C4002340083B9B080A4306339B00C3180433AC
:1004D4001A6027E0164AFB1D1B785BB29B08C033E9
:1004E4009B009B58FA1D1278110003220A40D20087
:1004F400FF2191400A00D2431A4011003B689B013E
:10050400FF221A40FB1D1B78180003230340DB0065
:100514009A400748FB1D1B785BB29B080A43C03313
:100524009B001A50C046BD4603B090BD00ED00E0EC
:1005340000E100E080B582B000AF78607B680E4ACD
:10054400934201D9012312E07B681B021A0A0B4B68
:10055400013A5A6001235B4203211800FFF77CFF34
:10056400064B00229A60054B07221A6000231800EC
:10057400BD4602B080BDC046FFFFFF0010E000E0B2
:1005840080B586B000AF0023FB6096235B011800A2
:10059400FFF7D0FFFFF766FE3C4B1B68FB600023B0
:1005A400FB6080239B020121180000F0F9F88023EE
:1005B400DB020121180000F0F3F880231B03012162
:1005C400180000F0EDF83B0020221A603B000022E6
:1005D4001A713B0000229A713B0003225A713B00BE
:1005E4000022DA713B002A4A1900100000F07CF85E
:1005F4003B0014221A603B0001221A713B000022C6
:100604009A713B0003225A713B000022DA713A00CE
:100614009023DB051100180000F066F89023DB0539
:100624001021180000F0B8F89023DB051021180001
:1006340000F0B4F89023DB0504229A619023DB05D3
:1006440004221A850023BB609023DB0510211800C7
:1006540000F0A2F800237B6102E07B6901337B6137
:100664007B690C4A9342F8DD9023DB0510211800C6
:1006740000F094F800233B6102E03B6901333B61E5
:100684003B69044A9342F8DDDEE7C04600000020DF
:10069400000800481FA107000C488546002103E01C
:1006A4000B4B5B58435004310A480B4B42189A4297
:1006B400F6D30A4A02E0002313600432084B9A423C
:1006C400F9D3FFF789FDFFF75BFFFEE70010002079
:1006D400BC070008000000201400002014000020C3
:1006E40014000020FEE70000F0B5DE4657464E46F3
:1006F40045460122E0B59346023283B00F680023D9
:10070400944602E00133102B3ED05A469A4014001E
:100714003C40A242F6D15D00A84665464646B54037
:10072400ED430C790195661E012E17D886682E407C
:10073400454686608668B2464E79AE40B146564616
:100744004D462E43866085882E00964386808D799B
:1007540082882E009E40324392B282800268019DBC
:100764000133154005604546AC40026814430460FB
:100774006446AC40C268A243C260CA79C468AA4055
:100784002243C260102BC0D103B03CBC90469946B2
:10079400A246AB46F0BDC0468161704701857047F3
:1007A400044A5369002902D01843506170478343B7
:0807B4005361FBE70010024055
:1007BC00006CDC02000000000000000001020304D9
:0407CC00060708090B
:040000050800069D4C
:00000001FF
