:020000040800F2
:10000000001000208506000849030008530300087B
:1000100000000000000000000000000000000000E0
:10002000000000000000000000000000590300086C
:100030000000000000000000630300086D030008DA
:10004000D1060008D1060008D1060008D106000834
:10005000D1060008D1060008D1060008D106000824
:10006000D1060008D1060008D1060008D106000814
:10007000D1060008D1060008D1060008D106000804
:10008000D1060008D106000800000000D1060008D3
:10009000D1060008D1060008D1060008D1060008E4
:1000A000D1060008D1060008D1060008E9040008BE
:1000B000D106000800000000D10600080000000082
:0400C0005FF808F1EC
:1000C400002243088B4274D303098B425FD3030A93
:1000D4008B4244D3030B8B4228D3030C8B420DD3A6
:1000E400FF22090212BA030C8B4202D31212090234
:1000F40065D0030B8B4219D300E0090AC30B8B4272
:1001040001D3CB03C01A5241830B8B4201D38B031F
:10011400C01A5241430B8B4201D34B03C01A5241C4
:10012400030B8B4201D30B03C01A5241C30A8B4207
:1001340001D3CB02C01A5241830A8B4201D38B02F2
:10014400C01A5241430A8B4201D34B02C01A524196
:10015400030A8B4201D30B02C01A5241CDD2C30908
:100164008B4201D3CB01C01A524183098B4201D384
:100174008B01C01A524143098B4201D34B01C01A6F
:10018400524103098B4201D30B01C01A5241C308E7
:100194008B4201D3CB00C01A524183088B4201D356
:1001A4008B00C01A524143088B4201D34B00C01A42
:1001B4005241411A00D20146524110467047FFE7AE
:1001C40001B5002000F006F802BDC0460029F7D0B2
:1001D40076E770477047C04680B500AF1B4B1A687E
:1001E4001A4B01210A431A60184B5A68174B1849D5
:1001F4000A405A60154B1A68144B16490A401A6093
:10020400124B1A68114B14490A401A600F4B5A6872
:100214000E4B12490A405A600C4BDA6A0B4B0F2101
:100224008A43DA62094B1A6B084B0D490A401A6378
:10023400064B5A6B054B01218A435A63034B002238
:100244009A6000F00FF8C046BD4680BD0010024021
:100254000CB8FFF8FFFFF6FEFFFFFBFFFFFFC0FF38
:10026400ACFEFFFF80B582B000AF00237B600023AB
:100274003B60314B1A68304B802149020A431A60B3
:100284002D4B1A6880239B0213403B607B6801332B
:100294007B603B68002B04D17A68A023DB019A427F
:1002A400EED1254B1A6880239B02134002D0012310
:1002B4003B6001E000233B603B68012B38D11F4BBE
:1002C40011221A601C4A1C4B52685A601A4A1A4B73
:1002D40052685A60184B5A68174B19490A405A60B9
:1002E400154B5A68144B882149030A435A60124B30
:1002F4001A68114B802149040A431A60C0460E4B08
:100304001A6880239B041340F9D00B4B5A680A4B9C
:1003140003218A435A60084B5A68074B02210A4357
:100324005A60C046044B5B680C221340082BF9D179
:10033400C046BD4602B080BD00100240002002400D
:10034400FFFFC0FF80B500AFC046BD4680BD80B58D
:1003540000AFFEE780B500AFC046BD4680BD80B5A6
:1003640000AFC046BD4680BD80B500AFC046BD46A7
:1003740080BD000090B58BB000AF78600C243B19B1
:10038400180000F037FA3B195B6879681800FFF72A
:1003940097FE03001A00034B1A60C046BD460BB01B
:1003A40090BDC0461401002080B582B000AF7860D3
:1003B4000A4B1B687A685A4313005B019B1A9B0023
:1003C4009B18DB000A3B7B60C0467B685A1E7A6040
:1003D400002BFAD1C046BD4602B080BD14010020F6
:1003E40090B51B4CA5443EAF1A4B1800FFF7C2FF53
:1003F400194B7A1DFF321360184B84225200944625
:10040400BC4463447A1DFF3212681100180000F0E6
:10041400FFF896239B01180000F088F80F4B842204
:100424005200BA18D4186B46180023001033F42273
:10043400190000F019FB20686168A268E36800F005
:1004440019F8FA239B001800FFF7AEFFD0E7C04667
:10045400FCFDFFFF00127A00900A0008F8FEFFFF7F
:1004640080B500AF024B00221A60C046BD4680BD75
:100474001000002084B090B583B000AF18243C195C
:1004840020606160A260E360FB1D00221A7019E025
:10049400FB1D1B781822BA18D3181B799BB2104A7B
:1004A4001900100000F098FAC0460D4B8021180086
:1004B40000F0B4FA0300012BF7D1FB1D1A78FB1DE1
:1004C40001321A70FB1D1A781823FB181B689A4214
:1004D400DEDBC046BD4603B090BC08BC04B0184780
:1004E4000038014080B500AF0D4A0E4B11001800D2
:1004F40000F09AFA031E0FD00A4B180000F070FAAD
:1005040003001800084B1B68591C074A1160C1B24C
:10051400054AD3180A1C1A71C046BD4680BDC046A0
:1005240005010500003801401000002090B58DB091
:1005340000AF78602C217B181B221A707B180022D4
:100544005A707B1801229A707B18180000F02AF95F
:100554000C243B197A681A603B1900225A603B1933
:1005640000229A603B190022DA603B1900225A618A
:100574003B190C221A6180239B020121180000F010
:10058400BBF98023DB010121180000F0C1F990239D
:10059400DB0501220921180000F0F2F89023DB05A5
:1005A40001220A21180000F0EBF824217B18C02254
:1005B400D2001A607B1802221A717B1803225A7126
:1005C4007B1800229A717B180122DA717A18902321
:1005D400DB051100180000F07BF83B190A4A1900EA
:1005E400100000F0A1F9084B0121180000F0EAF90D
:1005F4000649054B0122180000F0F6F9FFF730FF19
:10060400C046BD460DB090BD00380140050105004F
:1006140080B5C4B000AF78603960184B88225200AE
:100624009446BC446344180082235B001A000021F2
:1006340000F023FA114B882252009446BC446344D0
:1006440006221A603B681A780C4B882149008C46B4
:10065400BC4463441A717A68084B882149008C466B
:10066400BC4463441000190082235B001A0000F0AC
:10067400FBF97868BD4644B080BDC046FCFEFFFF70
:100684000C488546002103E00B4B5B584350043172
:100694000A480B4B42189A42F6D30A4A02E0002356
:1006A40013600432084B9A42F9D3FFF795FDFFF724
:1006B40097FEFEE700100020980A000800000020C2
:1006C40010000020100000201C010020FEE70000A4
:1006D400F0B5DE4657464E4645460122E0B5934600
:1006E400023283B00F680023944602E00133102BDA
:1006F4003ED05A469A4014003C40A242F6D15D00D6
:10070400A84665464646B540ED430C790195661EFC
:10071400012E17D886682E40454686608668B24604
:100724004E79AE40B14656464D462E438660858886
:100734002E00964386808D7982882E009E40324317
:1007440092B282800268019D0133154005604546DE
:10075400AC400268144304606446AC40C268A243DF
:10076400C260CA79C468AA402243C260102BC0D1B7
:1007740003B03CBC90469946A246AB46F0BDC04689
:10078400072310B50F240B409B009C409A40C908D6
:1007940089004018016AA1430162016A0A430262A6
:1007A40010BDC0461F230122F0B505782B409A40A6
:1007B4008378002B17D00E4B03249C46FF23A908F3
:1007C4002C401D004078C026E4008001A540034071
:1007D400A34089006144B6008F59AF433B438B511A
:1007E40063461A60F0BD80230149CA50FAE7C04647
:1007F40000E100E00C233C4A70B5516804000B4052
:10080400042B01D0082B4BD0384820600200364915
:10081400374D4B681B061B0FEB5CDA4062604B687C
:100824005B055B0FEB5CDA40A2600B6BDB0531D43C
:10083400304BE36040232C4D296B0B4059424B4114
:1008440012215B420B40802109028C4663442361E0
:100854002B6BDB0608D503006361032322490D6B70
:100864002B4208D1A26170BD204B1F496361032351
:100874000D6B2B42F6D00A6B1A40012A2DD00A6B5D
:100884001A40022A2BD00A6B1340032BEBD1174BCF
:10089400A361E8E74B685B0413D45308E360C9E73A
:1008A4000F2150685368800C0840851CDB030BD46F
:1008B4006B015B1B9801C01AC00040190002206044
:1008C400A4E79308E360B5E7D36A08481940013107
:1008D400FFF7F6FB6843206098E7A061C3E7802335
:1008E4001B02A361BFE7C0460010024000127A0059
:1008F40000000020809FD500044A5369002902D0DB
:1009040018435061704783435361FBE70010024072
:10091400044A9369002902D01843906170478343C5
:100924009361FBE700100240012230B50D0003681B
:1009340089B09343036043681D4A040013408A68E6
:100944001343436003681B4A1A404B68C9680B434E
:1009540029690B43134303608368174A13406A6988
:100964001343836001A8FFF745FF144B9C421DD03D
:10097400039823682D681B0414D540002900FFF751
:1009840025FC00236D08A9425B41C01823681B04A1
:1009940004D50B4A03075B0F1040184380B2A081B3
:1009A40009B030BD2900FFF711FCEAE70798E0E73A
:1009B400FFCFFFFFF3E9FFFFFFFCFFFF003801401B
:1009C400F0FF000003680122002902D013430360F2
:1009D400704793430360FBE7C905C90D0185704760
:1009E400808CC005C00D704710B5FF248BB20C403D
:1009F40001211B0AA140022B0ED0032B05D0036852
:100A0400002A06D01943016010BD08300368002A8B
:100A1400F8D18B430360F7E70430F0E7C069014085
:100A2400481E8141C8B2704710B5FF2401238AB221
:100A34000C40120AA340012A12D0022A0DD0826867
:100A44001340C2690020002B06D0090C01308840F5
:100A54000240501E8241D0B210BD42681340F0E7FC
:100A640002681340EDE7C046002310B59A4200D156
:100A740010BDCC5CC4540133F8E703001218934250
:0C0A840000D1704719700133F9E7000041
:080A900048656C6C6F0A000060
:100A9800000000000102030401020304060708091C
:040000050800068564
:00000001FF
