:020000040800F2
:1000000000100020F10600082D0400083704000845
:1000100000000000000000000000000000000000E0
:100020000000000000000000000000003D04000887
:100030000000000000000000470400085104000810
:100040003D0700083D0700083D0700083D07000880
:100050003D0700083D0700083D0700083D07000870
:100060003D0700083D0700083D0700083D07000860
:100070003D0700083D0700083D0700083D07000850
:100080003D0700083D070008000000003D0700088C
:100090003D0700083D0700083D0700083D07000830
:1000A0003D0700083D0700083D0700083D07000820
:1000B0003D070008000000003D07000800000000A8
:0400C0005FF808F1EC
:1000C400002243088B4274D303098B425FD3030A93
:1000D4008B4244D3030B8B4228D3030C8B420DD3A6
:1000E400FF22090212BA030C8B4202D31212090234
:1000F40065D0030B8B4219D300E0090AC30B8B4272
:1001040001D3CB03C01A5241830B8B4201D38B031F
:10011400C01A5241430B8B4201D34B03C01A5241C4
:10012400030B8B4201D30B03C01A5241C30A8B4207
:1001340001D3CB02C01A5241830A8B4201D38B02F2
:10014400C01A5241430A8B4201D34B02C01A524196
:10015400030A8B4201D30B02C01A5241CDD2C30908
:100164008B4201D3CB01C01A524183098B4201D384
:100174008B01C01A524143098B4201D34B01C01A6F
:10018400524103098B4201D30B01C01A5241C308E7
:100194008B4201D3CB00C01A524183088B4201D356
:1001A4008B00C01A524143088B4201D34B00C01A42
:1001B4005241411A00D20146524110467047FFE7AE
:1001C40001B5002000F006F802BDC0460029F7D0B2
:1001D40076E770477047C04680B500AF1B4B1A687E
:1001E4001A4B01210A431A60184B5A68174B1849D5
:1001F4000A405A60154B1A68144B16490A401A6093
:10020400124B1A68114B14490A401A600F4B5A6872
:100214000E4B12490A405A600C4BDA6A0B4B0F2101
:100224008A43DA62094B1A6B084B0D490A401A6378
:10023400064B5A6B054B01218A435A63034B002238
:100244009A6000F081F8C046BD4680BD00100240AF
:100254000CB8FFF8FFFFF6FEFFFFFBFFFFFFC0FF38
:10026400ACFEFFFF80B584B000AF0023FB60002329
:10027400BB6000237B6000233B602F4B5B680C2238
:100284001340FB60FB68042B09D0FB68082B0AD0E1
:10029400FB68002B38D1294B294A1A6038E0274BD8
:1002A400274A1A6034E0244B5A68F0239B03134016
:1002B400BB60214B5A6880235B0213407B60BB68A0
:1002C4009B0C0233BB607B68002B0CD1B9680A001D
:1002D4005201521A93019B1ADB005B181B021A008D
:1002E400164B1A6014E0144BDB6A0F2213400133DF
:1002F4003B6039681248FFF7E3FE03001A00BB684D
:100304005A430E4B1A6003E00C4B0D4A1A60C04668
:10031400094B5B681B090F2213400A4AD35CDBB20A
:10032400FB60064B1A68FB68DA40044B1A60C0464F
:10033400BD4604B080BDC04600100240000000204D
:1003440000127A000400002080B582B000AF0023C0
:100354007B6000233B60314B1A68304B802149029B
:100364000A431A602D4B1A6880239B0213403B609A
:100374007B6801337B603B68002B04D17A68A0233F
:10038400DB019A42EED1254B1A6880239B0213406D
:1003940002D001233B6001E000233B603B68012B5A
:1003A40038D11F4B11221A601C4A1C4B52685A60E8
:1003B4001A4A1A4B52685A60184B5A68174B194913
:1003C4000A405A60154B5A68144B882149030A4362
:1003D4005A60124B1A68114B802149040A431A606F
:1003E400C0460E4B1A6880239B041340F9D00B4B74
:1003F4005A680A4B03218A435A60084B5A68074BD0
:1004040002210A435A60C046044B5B680C22134025
:10041400082BF9D1C046BD4602B080BD0010024091
:1004240000200240FFFFC0FF80B500AFC046BD46BC
:1004340080BD80B500AFFEE780B500AFC046BD46C5
:1004440080BD80B500AFC046BD4680BD80B500AF5D
:10045400C046BD4680BD000090B583B000AF020029
:100464003960FB1D1A70FB1D1B787F2B32D92F4A74
:10047400FB1D1B7819000F230B40083B9B08063318
:100484009B00D31804331B68FA1D12781100032251
:100494000A40D200FF2191400A00D2431A401100C1
:1004A4003B689B01FF221A40FB1D1B7818000323A5
:1004B4000340DB009A401D48FB1D1B781C000F23E2
:1004C4002340083B9B080A4306339B00C3180433AC
:1004D4001A6027E0164AFB1D1B785BB29B08C033E9
:1004E4009B009B58FA1D1278110003220A40D20087
:1004F400FF2191400A00D2431A4011003B689B013E
:10050400FF221A40FB1D1B78180003230340DB0065
:100514009A400748FB1D1B785BB29B080A43C03313
:100524009B001A50C046BD4603B090BD00ED00E0EC
:1005340000E100E080B582B000AF78607B680E4ACD
:10054400934201D9012312E07B681B021A0A0B4B68
:10055400013A5A6001235B4203211800FFF77CFF34
:10056400064B00229A60054B07221A6000231800EC
:10057400BD4602B080BDC046FFFFFF0010E000E0B2
:1005840090B58BB000AF78600C243B19180000F0D4
:1005940031F93B195B6879681800FFF791FD030096
:1005A4001A00034B1A60C046BD460BB090BDC0464E
:1005B4002400002080B582B000AF78600A4B1B682D
:1005C4007A685A4313005B019B1A9B009B18DB005B
:1005D4000A3B7B60C0467B685A1E7A60002BFAD1C6
:1005E400C046BD4602B080BD2400002080B584B062
:1005F40000AF3C4B1800FFF7C3FF96235B011800C4
:10060400FFF798FFFFF72EFE80239B0201211800BD
:1006140000F072F98023DB020121180000F06CF96C
:1006240080231B030121180000F066F93B1D2022E2
:100634001A603B1D00221A713B1D00229A713B1D5A
:1006440003225A713B1D0022DA713B1D264A190010
:10065400100000F073F83B1D14221A603B1D0122A8
:100664001A713B1D00229A713B1D03225A713B1DD6
:100674000022DA713A1D9023DB051100180000F006
:100684005DF89023DB051021180000F0AFF89023EB
:10069400DB051021180000F0ABF89023DB050422E1
:1006A4009A619023DB0504221A850023FB609023C2
:1006B400DB051021180000F099F8FA239B001800BC
:1006C400FFF778FFFB680133FB609023DB05102103
:1006D400180000F08DF8FA239B001800FFF76AFF5A
:1006E400E5E7C04600127A00000800480C48854639
:1006F400002103E00B4B5B58435004310A480B4B79
:1007040042189A42F6D30A4A02E0002313600432E4
:10071400084B9A42F9D3FFF75FFDFFF767FFFEE747
:10072400001000201409000800000020240000200C
:10073400240000202C000020FEE70000F0B5DE4677
:1007440057464E4645460122E0B59346023283B0F1
:100754000F680023944602E00133102B3ED05A4622
:100764009A4014003C40A242F6D15D00A84665467A
:100774004646B540ED430C790195661E012E17D807
:1007840086682E40454686608668B2464E79AE40FD
:10079400B14656464D462E43866085882E009643C4
:1007A40086808D7982882E009E40324392B2828068
:1007B4000268019D0133154005604546AC4002685E
:1007C400144304606446AC40C268A243C260CA7960
:1007D400C468AA402243C260102BC0D103B03CBC01
:1007E40090469946A246AB46F0BDC046816170472B
:1007F400018570470C233C4A70B5516804000B40D6
:10080400042B01D0082B4BD0384820600200364915
:10081400374D4B681B061B0FEB5CDA4062604B687C
:100824005B055B0FEB5CDA40A2600B6BDB0531D43C
:10083400304BE36040232C4D296B0B4059424B4114
:1008440012215B420B40802109028C4663442361E0
:100854002B6BDB0608D503006361032322490D6B70
:100864002B4208D1A26170BD204B1F496361032351
:100874000D6B2B42F6D00A6B1A40012A2DD00A6B5D
:100884001A40022A2BD00A6B1340032BEBD1174BCF
:10089400A361E8E74B685B0413D45308E360C9E73A
:1008A4000F2150685368800C0840851CDB030BD46F
:1008B4006B015B1B9801C01AC00040190002206044
:1008C400A4E79308E360B5E7D36A08481940013107
:1008D400FFF7F6FB6843206098E7A061C3E7802335
:1008E4001B02A361BFE7C0460010024000127A0059
:1008F40014000020809FD500044A5369002902D0C7
:1009040018435061704783435361FBE70010024072
:10091400006CDC020000000000000000010203047F
:100924000607080900000000010203040102030491
:0409340006070809A1
:04000005080006F1F8
:00000001FF
